:020000040800F2
:1000000000200020E504000835050008350500083B
:1000100000000000000000000000000000000000E0
:10002000000000000000000000000000350500088E
:10003000000000000000000035050008350500083C
:1000400035050008000000003505000835050008EA
:100050003505000835050008350500083505000898
:1000600000000000350500083505000835050008CA
:1000700035050008350500083505000800000000BA
:1000800035050008000000000000000069040008B9
:10009000000000003505000835050008350500089A
:1000A0003505000835050008350500083505000848
:0800B000350500080000000006
:1000B8000448054B10B5834203D0044B002B00D0F5
:1000C800984710BD04000020040000200000000034
:1000D80006480749091A8B10C90FC91810B54910E5
:1000E80003D0044B002B00D0984710BD040000201B
:1000F800040000200000000010B5074C2378002BF6
:1001080009D1FFF7D5FF054B002B02D0044800E0CA
:1001180000BF0123237010BD040000200000000070
:1001280038050008054B10B5002B03D004490548D5
:1001380000E000BFFFF7CCFF10BDC0460000000084
:10014800080000203805000870B50C4D0C4E761BD1
:10015800B61005D0002408CD01349847A642FAD13C
:1001680000F0E6F9074D084E761BB61005D00024BE
:1001780008CD01349847A642FAD170BD9005000811
:10018800900500089005000894050008002243081F
:100198008B4274D303098B425FD3030A8B4244D347
:1001A800030B8B4228D3030C8B420DD3FF22090289
:1001B80012BA030C8B4202D31212090265D0030B48
:1001C8008B4219D300E0090AC30B8B4201D3CB033E
:1001D800C01A5241830B8B4201D38B03C01A524180
:1001E800430B8B4201D34B03C01A5241030B8B4282
:1001F80001D30B03C01A5241C30A8B4201D3CB026D
:10020800C01A5241830A8B4201D38B02C01A524151
:10021800430A8B4201D34B02C01A5241030A8B4254
:1002280001D30B02C01A5241CDD2C3098B4201D36C
:10023800CB01C01A524183098B4201D38B01C01AEA
:10024800524143098B4201D34B01C01A5241030961
:100258008B4201D30B01C01A5241C3088B4201D310
:10026800CB00C01A524183088B4201D38B00C01ABD
:10027800524143088B4201D34B00C01A5241411AE4
:1002880000D20146524110467047FFE701B50020F1
:1002980000F006F802BDC0460029F7D076E770479F
:1002A8007047C0468022024B12059A607047C046CC
:1002B80000ED00E03823204A10B591680B40182B58
:1002C80032D019D8082B26D0102B26D1D368D16864
:1002D800DB434906490F01319B0728D01748FFF730
:1002E80055FF154AD368D1685B045B0E490F584324
:1002F8000131FFF74BFF03E0202B0ED180200002D5
:100308000D4B0F4A9B681B051B0F9B009B58D84041
:100318000C4B186010BD0C48F2E7074B07481B68E8
:100328009B045B0FD840EBE7FA20C001E8E70648DA
:10033800FFF72CFFD5E7C046001002400024F40068
:10034800500500080000002000127A00284A2949B8
:10035800136810B5194080239B000B43802113605C
:10036800C90053690B42FCD10721234A13688B4308
:1003780005390B4313608023204A5B0011680B4347
:1003880080211360C90013680B42FCD013681C4914
:100398000B4080211360194A890413680B42FCD171
:1003A800D36818490B40D360D168174B0B43D3600F
:1003B800802311685B040B4313608023D1685B05BD
:1003C8000B438021D3600D4A890413680B42FCD08B
:1003D800072193688B4305390B43936038220749FB
:1003E8008B681340102BFBD1FFF764FF10BDC0468C
:1003F80000700040FFF9FFFF00200240001002409B
:10040800FFFFFFFE8C80FF1F020800208023104A98
:100418001B02116C0B4313640E4B0F4A01219A62A5
:1004280000225A62F422FF32DA625A690A435A6198
:100438001A691142FCD0002280201A61DA68000390
:100448000A43DA60054A10601A6811431960704758
:100458000010024000200040FFF9000000E100E029
:1004680001210A4A13698B431361094B1A68002A50
:1004780006D08021074A0906916100221A60704758
:100488008020044A000290611960F8E700200040CB
:10049800200000200008005010B5FFF757FF042186
:1004A8000C4A536B0B4353630B4B1A689200920828
:1004B8001A6080221968D2050A431A60DA68920025
:1004C8009208DA608022D96812060A43DA60FFF7D8
:1004D8009DFFFEE700100240000800500D488546C9
:1004E800FFF7E0FE0C480D490D4A002302E0D458FE
:1004F800C4500433C4188C42F9D30A4A0A4C002366
:1005080001E013600432A242FBD3FFF71DFEFFF7A0
:10051800C3FFFEE7002000200000002004000020A8
:10052800980500080400002024000020FEE70000D1
:10053800F8B5C046F8BC08BC9E467047F8B5C0463A
:08054800F8BC08BC9E46704798
:10055000000000000000000000000000000000009B
:10056000000000000000000000000000000000008B
:100570000100000002000000030000000400000071
:10058000060000000700000008000000090000004D
:040590002D01000831
:040594000101000859
:040598000024F40047
:04000005080004E506
:00000001FF
